{
  "contractName": "CutiesToken",
  "abi": [
    {
      "inputs": [
        {
          "internalType": "string",
          "name": "name",
          "type": "string"
        },
        {
          "internalType": "string",
          "name": "symbol",
          "type": "string"
        },
        {
          "internalType": "uint256",
          "name": "initialSupply",
          "type": "uint256"
        },
        {
          "internalType": "uint256",
          "name": "maxSupply",
          "type": "uint256"
        }
      ],
      "stateMutability": "nonpayable",
      "type": "constructor"
    },
    {
      "anonymous": false,
      "inputs": [
        {
          "indexed": true,
          "internalType": "address",
          "name": "owner",
          "type": "address"
        },
        {
          "indexed": true,
          "internalType": "address",
          "name": "spender",
          "type": "address"
        },
        {
          "indexed": false,
          "internalType": "uint256",
          "name": "value",
          "type": "uint256"
        }
      ],
      "name": "Approval",
      "type": "event"
    },
    {
      "anonymous": false,
      "inputs": [
        {
          "indexed": true,
          "internalType": "address",
          "name": "from",
          "type": "address"
        },
        {
          "indexed": true,
          "internalType": "address",
          "name": "to",
          "type": "address"
        },
        {
          "indexed": false,
          "internalType": "uint256",
          "name": "value",
          "type": "uint256"
        }
      ],
      "name": "Transfer",
      "type": "event"
    },
    {
      "inputs": [
        {
          "internalType": "address",
          "name": "owner",
          "type": "address"
        },
        {
          "internalType": "address",
          "name": "spender",
          "type": "address"
        }
      ],
      "name": "allowance",
      "outputs": [
        {
          "internalType": "uint256",
          "name": "",
          "type": "uint256"
        }
      ],
      "stateMutability": "view",
      "type": "function",
      "constant": true
    },
    {
      "inputs": [
        {
          "internalType": "address",
          "name": "spender",
          "type": "address"
        },
        {
          "internalType": "uint256",
          "name": "amount",
          "type": "uint256"
        }
      ],
      "name": "approve",
      "outputs": [
        {
          "internalType": "bool",
          "name": "",
          "type": "bool"
        }
      ],
      "stateMutability": "nonpayable",
      "type": "function"
    },
    {
      "inputs": [
        {
          "internalType": "address",
          "name": "account",
          "type": "address"
        }
      ],
      "name": "balanceOf",
      "outputs": [
        {
          "internalType": "uint256",
          "name": "",
          "type": "uint256"
        }
      ],
      "stateMutability": "view",
      "type": "function",
      "constant": true
    },
    {
      "inputs": [
        {
          "internalType": "address",
          "name": "",
          "type": "address"
        }
      ],
      "name": "blackList",
      "outputs": [
        {
          "internalType": "bool",
          "name": "",
          "type": "bool"
        }
      ],
      "stateMutability": "view",
      "type": "function",
      "constant": true
    },
    {
      "inputs": [],
      "name": "decimals",
      "outputs": [
        {
          "internalType": "uint8",
          "name": "",
          "type": "uint8"
        }
      ],
      "stateMutability": "view",
      "type": "function",
      "constant": true
    },
    {
      "inputs": [
        {
          "internalType": "address",
          "name": "spender",
          "type": "address"
        },
        {
          "internalType": "uint256",
          "name": "subtractedValue",
          "type": "uint256"
        }
      ],
      "name": "decreaseAllowance",
      "outputs": [
        {
          "internalType": "bool",
          "name": "",
          "type": "bool"
        }
      ],
      "stateMutability": "nonpayable",
      "type": "function"
    },
    {
      "inputs": [
        {
          "internalType": "address",
          "name": "spender",
          "type": "address"
        },
        {
          "internalType": "uint256",
          "name": "addedValue",
          "type": "uint256"
        }
      ],
      "name": "increaseAllowance",
      "outputs": [
        {
          "internalType": "bool",
          "name": "",
          "type": "bool"
        }
      ],
      "stateMutability": "nonpayable",
      "type": "function"
    },
    {
      "inputs": [],
      "name": "name",
      "outputs": [
        {
          "internalType": "string",
          "name": "",
          "type": "string"
        }
      ],
      "stateMutability": "view",
      "type": "function",
      "constant": true
    },
    {
      "inputs": [
        {
          "internalType": "address",
          "name": "",
          "type": "address"
        }
      ],
      "name": "operatorList",
      "outputs": [
        {
          "internalType": "bool",
          "name": "",
          "type": "bool"
        }
      ],
      "stateMutability": "view",
      "type": "function",
      "constant": true
    },
    {
      "inputs": [],
      "name": "symbol",
      "outputs": [
        {
          "internalType": "string",
          "name": "",
          "type": "string"
        }
      ],
      "stateMutability": "view",
      "type": "function",
      "constant": true
    },
    {
      "inputs": [],
      "name": "totalSupply",
      "outputs": [
        {
          "internalType": "uint256",
          "name": "",
          "type": "uint256"
        }
      ],
      "stateMutability": "view",
      "type": "function",
      "constant": true
    },
    {
      "inputs": [
        {
          "internalType": "address",
          "name": "to",
          "type": "address"
        },
        {
          "internalType": "uint256",
          "name": "amount",
          "type": "uint256"
        }
      ],
      "name": "transfer",
      "outputs": [
        {
          "internalType": "bool",
          "name": "",
          "type": "bool"
        }
      ],
      "stateMutability": "nonpayable",
      "type": "function"
    },
    {
      "inputs": [
        {
          "internalType": "address",
          "name": "from",
          "type": "address"
        },
        {
          "internalType": "address",
          "name": "to",
          "type": "address"
        },
        {
          "internalType": "uint256",
          "name": "amount",
          "type": "uint256"
        }
      ],
      "name": "transferFrom",
      "outputs": [
        {
          "internalType": "bool",
          "name": "",
          "type": "bool"
        }
      ],
      "stateMutability": "nonpayable",
      "type": "function"
    },
    {
      "inputs": [
        {
          "internalType": "address",
          "name": "_tokenContract",
          "type": "address"
        },
        {
          "internalType": "uint256",
          "name": "_amount",
          "type": "uint256"
        }
      ],
      "name": "withdrawToken",
      "outputs": [],
      "stateMutability": "nonpayable",
      "type": "function"
    },
    {
      "inputs": [
        {
          "internalType": "uint256",
          "name": "_amount",
          "type": "uint256"
        }
      ],
      "name": "withdrawNativeToken",
      "outputs": [],
      "stateMutability": "nonpayable",
      "type": "function"
    },
    {
      "inputs": [
        {
          "internalType": "address",
          "name": "_nftContract",
          "type": "address"
        },
        {
          "internalType": "uint256",
          "name": "tokenId",
          "type": "uint256"
        }
      ],
      "name": "withdrawNFT",
      "outputs": [],
      "stateMutability": "nonpayable",
      "type": "function"
    },
    {
      "inputs": [
        {
          "internalType": "address",
          "name": "to",
          "type": "address"
        },
        {
          "internalType": "uint256",
          "name": "amount",
          "type": "uint256"
        }
      ],
      "name": "mint",
      "outputs": [],
      "stateMutability": "nonpayable",
      "type": "function"
    },
    {
      "inputs": [
        {
          "internalType": "uint256",
          "name": "amount",
          "type": "uint256"
        }
      ],
      "name": "burn",
      "outputs": [],
      "stateMutability": "nonpayable",
      "type": "function"
    },
    {
      "inputs": [
        {
          "internalType": "address",
          "name": "account",
          "type": "address"
        },
        {
          "internalType": "uint256",
          "name": "amount",
          "type": "uint256"
        }
      ],
      "name": "burnFrom",
      "outputs": [],
      "stateMutability": "nonpayable",
      "type": "function"
    },
    {
      "inputs": [
        {
          "internalType": "address",
          "name": "_wallet",
          "type": "address"
        }
      ],
      "name": "addToOperatorList",
      "outputs": [],
      "stateMutability": "nonpayable",
      "type": "function"
    },
    {
      "inputs": [
        {
          "internalType": "address",
          "name": "_wallet",
          "type": "address"
        }
      ],
      "name": "removeFromOperatorList",
      "outputs": [],
      "stateMutability": "nonpayable",
      "type": "function"
    },
    {
      "inputs": [
        {
          "internalType": "address",
          "name": "_wallet",
          "type": "address"
        }
      ],
      "name": "addToBlackList",
      "outputs": [],
      "stateMutability": "nonpayable",
      "type": "function"
    },
    {
      "inputs": [
        {
          "internalType": "address",
          "name": "_wallet",
          "type": "address"
        }
      ],
      "name": "removeFromBlackList",
      "outputs": [],
      "stateMutability": "nonpayable",
      "type": "function"
    }
  ],
  "bytecode": "0x60a06040523480156200001157600080fd5b5060405162003450380380620034508339818101604052810190620000379190620006c6565b83838160039080519060200190620000519291906200043e565b5080600490805190602001906200006a9291906200043e565b50505060008111620000b3576040517f08c379a0000000000000000000000000000000000000000000000000000000008152600401620000aa90620007d7565b60405180910390fd5b8060808181525050620000cd33836200012760201b60201c565b620000dd620001ab60201b60201c565b600560006101000a81548173ffffffffffffffffffffffffffffffffffffffff021916908373ffffffffffffffffffffffffffffffffffffffff1602179055505050505062000ae0565b6080518162000140620001b360201b6200066b1760201c565b6200014c919062000828565b111562000190576040517f08c379a00000000000000000000000000000000000000000000000000000000081526004016200018790620008d5565b60405180910390fd5b620001a78282620001bd60201b620012a81760201c565b5050565b600033905090565b6000600254905090565b600073ffffffffffffffffffffffffffffffffffffffff168273ffffffffffffffffffffffffffffffffffffffff16141562000230576040517f08c379a0000000000000000000000000000000000000000000000000000000008152600401620002279062000947565b60405180910390fd5b62000244600083836200033660201b60201c565b806002600082825462000258919062000828565b92505081905550806000808473ffffffffffffffffffffffffffffffffffffffff1673ffffffffffffffffffffffffffffffffffffffff1681526020019081526020016000206000828254620002af919062000828565b925050819055508173ffffffffffffffffffffffffffffffffffffffff16600073ffffffffffffffffffffffffffffffffffffffff167fddf252ad1be2c89b69c2b068fc378daa952ba7f163c4a11628f55a4df523b3ef836040516200031691906200097a565b60405180910390a36200033260008383620003e360201b60201c565b5050565b6200034783620003e860201b60201c565b156200038a576040517f08c379a00000000000000000000000000000000000000000000000000000000081526004016200038190620009e7565b60405180910390fd5b6200039b82620003e860201b60201c565b15620003de576040517f08c379a0000000000000000000000000000000000000000000000000000000008152600401620003d59062000a59565b60405180910390fd5b505050565b505050565b6000600660008373ffffffffffffffffffffffffffffffffffffffff1673ffffffffffffffffffffffffffffffffffffffff16815260200190815260200160002060009054906101000a900460ff169050919050565b8280546200044c9062000aaa565b90600052602060002090601f016020900481019282620004705760008555620004bc565b82601f106200048b57805160ff1916838001178555620004bc565b82800160010185558215620004bc579182015b82811115620004bb5782518255916020019190600101906200049e565b5b509050620004cb9190620004cf565b5090565b5b80821115620004ea576000816000905550600101620004d0565b5090565b6000604051905090565b600080fd5b600080fd5b600080fd5b600080fd5b6000601f19601f8301169050919050565b7f4e487b7100000000000000000000000000000000000000000000000000000000600052604160045260246000fd5b62000557826200050c565b810181811067ffffffffffffffff821117156200057957620005786200051d565b5b80604052505050565b60006200058e620004ee565b90506200059c82826200054c565b919050565b600067ffffffffffffffff821115620005bf57620005be6200051d565b5b620005ca826200050c565b9050602081019050919050565b60005b83811015620005f7578082015181840152602081019050620005da565b8381111562000607576000848401525b50505050565b6000620006246200061e84620005a1565b62000582565b90508281526020810184848401111562000643576200064262000507565b5b62000650848285620005d7565b509392505050565b600082601f83011262000670576200066f62000502565b5b8151620006828482602086016200060d565b91505092915050565b6000819050919050565b620006a0816200068b565b8114620006ac57600080fd5b50565b600081519050620006c08162000695565b92915050565b60008060008060808587031215620006e357620006e2620004f8565b5b600085015167ffffffffffffffff811115620007045762000703620004fd565b5b620007128782880162000658565b945050602085015167ffffffffffffffff811115620007365762000735620004fd565b5b620007448782880162000658565b93505060406200075787828801620006af565b92505060606200076a87828801620006af565b91505092959194509250565b600082825260208201905092915050565b7f45524332303a206d617820737570706c79206973203000000000000000000000600082015250565b6000620007bf60168362000776565b9150620007cc8262000787565b602082019050919050565b60006020820190508181036000830152620007f281620007b0565b9050919050565b7f4e487b7100000000000000000000000000000000000000000000000000000000600052601160045260246000fd5b600062000835826200068b565b915062000842836200068b565b9250827fffffffffffffffffffffffffffffffffffffffffffffffffffffffffffffffff038211156200087a5762000879620007f9565b5b828201905092915050565b7f45524332303a206d617820737570706c79206578636565646564000000000000600082015250565b6000620008bd601a8362000776565b9150620008ca8262000885565b602082019050919050565b60006020820190508181036000830152620008f081620008ae565b9050919050565b7f45524332303a206d696e7420746f20746865207a65726f206164647265737300600082015250565b60006200092f601f8362000776565b91506200093c82620008f7565b602082019050919050565b60006020820190508181036000830152620009628162000920565b9050919050565b62000974816200068b565b82525050565b600060208201905062000991600083018462000969565b92915050565b7f53656e64657220697320696e2074686520626c61636b6c697374000000000000600082015250565b6000620009cf601a8362000776565b9150620009dc8262000997565b602082019050919050565b6000602082019050818103600083015262000a0281620009c0565b9050919050565b7f526563697069656e7420697320696e2074686520626c61636b6c697374000000600082015250565b600062000a41601d8362000776565b915062000a4e8262000a09565b602082019050919050565b6000602082019050818103600083015262000a748162000a32565b9050919050565b7f4e487b7100000000000000000000000000000000000000000000000000000000600052602260045260246000fd5b6000600282049050600182168062000ac357607f821691505b6020821081141562000ada5762000ad962000a7b565b5b50919050565b60805161295462000afc60003960006118ea01526129546000f3fe608060405234801561001057600080fd5b506004361061014d5760003560e01c80634838d165116100c35780637fca5faf1161007c5780637fca5faf146103ac57806395d89b41146103c85780639e281a98146103e6578063a457c2d714610402578063a9059cbb14610432578063dd62ed3e146104625761014d565b80634838d165146102c85780634a49ac4c146102f85780636088e93a1461031457806370a08231146103305780637475ba0d1461036057806379cc6790146103905761014d565b8063244c1bf611610115578063244c1bf61461020a578063313ce56714610226578063395093511461024457806340c10f1914610274578063417c73a71461029057806342966c68146102ac5761014d565b806306fdde0314610152578063095ea7b31461017057806317e0f252146101a057806318160ddd146101bc57806323b872dd146101da575b600080fd5b61015a610492565b6040516101679190611ccd565b60405180910390f35b61018a60048036038101906101859190611d88565b610524565b6040516101979190611de3565b60405180910390f35b6101ba60048036038101906101b59190611dfe565b610547565b005b6101c461066b565b6040516101d19190611e3a565b60405180910390f35b6101f460048036038101906101ef9190611e55565b610675565b6040516102019190611de3565b60405180910390f35b610224600480360381019061021f9190611ea8565b6106a4565b005b61022e61078d565b60405161023b9190611ef1565b60405180910390f35b61025e60048036038101906102599190611d88565b610796565b60405161026b9190611de3565b60405180910390f35b61028e60048036038101906102899190611d88565b610840565b005b6102aa60048036038101906102a59190611ea8565b6108e5565b005b6102c660048036038101906102c19190611dfe565b610a32565b005b6102e260048036038101906102dd9190611ea8565b610add565b6040516102ef9190611de3565b60405180910390f35b610312600480360381019061030d9190611ea8565b610afd565b005b61032e60048036038101906103299190611d88565b610c41565b005b61034a60048036038101906103459190611ea8565b610d51565b6040516103579190611e3a565b60405180910390f35b61037a60048036038101906103759190611ea8565b610d99565b6040516103879190611de3565b60405180910390f35b6103aa60048036038101906103a59190611d88565b610db9565b005b6103c660048036038101906103c19190611ea8565b610e70565b005b6103d0610f62565b6040516103dd9190611ccd565b60405180910390f35b61040060048036038101906103fb9190611d88565b610ff4565b005b61041c60048036038101906104179190611d88565b611114565b6040516104299190611de3565b60405180910390f35b61044c60048036038101906104479190611d88565b6111fe565b6040516104599190611de3565b60405180910390f35b61047c60048036038101906104779190611f0c565b611221565b6040516104899190611e3a565b60405180910390f35b6060600380546104a190611f7b565b80601f01602080910402602001604051908101604052809291908181526020018280546104cd90611f7b565b801561051a5780601f106104ef5761010080835404028352916020019161051a565b820191906000526020600020905b8154815290600101906020018083116104fd57829003601f168201915b5050505050905090565b60008061052f611408565b905061053c818585611410565b600191505092915050565b61054f611408565b73ffffffffffffffffffffffffffffffffffffffff16600560009054906101000a900473ffffffffffffffffffffffffffffffffffffffff1673ffffffffffffffffffffffffffffffffffffffff16146105de576040517f08c379a00000000000000000000000000000000000000000000000000000000081526004016105d590611ff9565b60405180910390fd5b80471015610621576040517f08c379a000000000000000000000000000000000000000000000000000000000815260040161061890612065565b60405180910390fd5b3373ffffffffffffffffffffffffffffffffffffffff166108fc829081150290604051600060405180830381858888f19350505050158015610667573d6000803e3d6000fd5b5050565b6000600254905090565b600080610680611408565b905061068d8582856115db565b610698858585611667565b60019150509392505050565b6106ac611408565b73ffffffffffffffffffffffffffffffffffffffff16600560009054906101000a900473ffffffffffffffffffffffffffffffffffffffff1673ffffffffffffffffffffffffffffffffffffffff161461073b576040517f08c379a000000000000000000000000000000000000000000000000000000000815260040161073290611ff9565b60405180910390fd5b600760008273ffffffffffffffffffffffffffffffffffffffff1673ffffffffffffffffffffffffffffffffffffffff16815260200190815260200160002060006101000a81549060ff021916905550565b60006012905090565b6000806107a1611408565b9050610835818585600160008673ffffffffffffffffffffffffffffffffffffffff1673ffffffffffffffffffffffffffffffffffffffff16815260200190815260200160002060008973ffffffffffffffffffffffffffffffffffffffff1673ffffffffffffffffffffffffffffffffffffffff1681526020019081526020016000205461083091906120b4565b611410565b600191505092915050565b610848611408565b73ffffffffffffffffffffffffffffffffffffffff16600560009054906101000a900473ffffffffffffffffffffffffffffffffffffffff1673ffffffffffffffffffffffffffffffffffffffff16146108d7576040517f08c379a00000000000000000000000000000000000000000000000000000000081526004016108ce90611ff9565b60405180910390fd5b6108e182826118e8565b5050565b6108ed611408565b73ffffffffffffffffffffffffffffffffffffffff16600560009054906101000a900473ffffffffffffffffffffffffffffffffffffffff1673ffffffffffffffffffffffffffffffffffffffff16148061099857506007600061094f611408565b73ffffffffffffffffffffffffffffffffffffffff1673ffffffffffffffffffffffffffffffffffffffff16815260200190815260200160002060009054906101000a900460ff165b6109d7576040517f08c379a00000000000000000000000000000000000000000000000000000000081526004016109ce90612156565b60405180910390fd5b6001600660008373ffffffffffffffffffffffffffffffffffffffff1673ffffffffffffffffffffffffffffffffffffffff16815260200190815260200160002060006101000a81548160ff02191690831515021790555050565b610a3a611408565b73ffffffffffffffffffffffffffffffffffffffff16600560009054906101000a900473ffffffffffffffffffffffffffffffffffffffff1673ffffffffffffffffffffffffffffffffffffffff1614610ac9576040517f08c379a0000000000000000000000000000000000000000000000000000000008152600401610ac090611ff9565b60405180910390fd5b610ada610ad4611408565b8261196b565b50565b60066020528060005260406000206000915054906101000a900460ff1681565b610b05611408565b73ffffffffffffffffffffffffffffffffffffffff16600560009054906101000a900473ffffffffffffffffffffffffffffffffffffffff1673ffffffffffffffffffffffffffffffffffffffff161480610bb0575060076000610b67611408565b73ffffffffffffffffffffffffffffffffffffffff1673ffffffffffffffffffffffffffffffffffffffff16815260200190815260200160002060009054906101000a900460ff165b610bef576040517f08c379a0000000000000000000000000000000000000000000000000000000008152600401610be690612156565b60405180910390fd5b600660008273ffffffffffffffffffffffffffffffffffffffff1673ffffffffffffffffffffffffffffffffffffffff16815260200190815260200160002060006101000a81549060ff021916905550565b610c49611408565b73ffffffffffffffffffffffffffffffffffffffff16600560009054906101000a900473ffffffffffffffffffffffffffffffffffffffff1673ffffffffffffffffffffffffffffffffffffffff1614610cd8576040517f08c379a0000000000000000000000000000000000000000000000000000000008152600401610ccf90611ff9565b60405180910390fd5b60008290508073ffffffffffffffffffffffffffffffffffffffff166323b872dd3033856040518463ffffffff1660e01b8152600401610d1a93929190612185565b600060405180830381600087803b158015610d3457600080fd5b505af1158015610d48573d6000803e3d6000fd5b50505050505050565b60008060008373ffffffffffffffffffffffffffffffffffffffff1673ffffffffffffffffffffffffffffffffffffffff168152602001908152602001600020549050919050565b60076020528060005260406000206000915054906101000a900460ff1681565b610dc1611408565b73ffffffffffffffffffffffffffffffffffffffff16600560009054906101000a900473ffffffffffffffffffffffffffffffffffffffff1673ffffffffffffffffffffffffffffffffffffffff1614610e50576040517f08c379a0000000000000000000000000000000000000000000000000000000008152600401610e4790611ff9565b60405180910390fd5b610e6282610e5c611408565b836115db565b610e6c828261196b565b5050565b610e78611408565b73ffffffffffffffffffffffffffffffffffffffff16600560009054906101000a900473ffffffffffffffffffffffffffffffffffffffff1673ffffffffffffffffffffffffffffffffffffffff1614610f07576040517f08c379a0000000000000000000000000000000000000000000000000000000008152600401610efe90611ff9565b60405180910390fd5b6001600760008373ffffffffffffffffffffffffffffffffffffffff1673ffffffffffffffffffffffffffffffffffffffff16815260200190815260200160002060006101000a81548160ff02191690831515021790555050565b606060048054610f7190611f7b565b80601f0160208091040260200160405190810160405280929190818152602001828054610f9d90611f7b565b8015610fea5780601f10610fbf57610100808354040283529160200191610fea565b820191906000526020600020905b815481529060010190602001808311610fcd57829003601f168201915b5050505050905090565b610ffc611408565b73ffffffffffffffffffffffffffffffffffffffff16600560009054906101000a900473ffffffffffffffffffffffffffffffffffffffff1673ffffffffffffffffffffffffffffffffffffffff161461108b576040517f08c379a000000000000000000000000000000000000000000000000000000000815260040161108290611ff9565b60405180910390fd5b60008290508073ffffffffffffffffffffffffffffffffffffffff1663a9059cbb33846040518363ffffffff1660e01b81526004016110cb9291906121bc565b6020604051808303816000875af11580156110ea573d6000803e3d6000fd5b505050506040513d601f19601f8201168201806040525081019061110e9190612211565b50505050565b60008061111f611408565b90506000600160008373ffffffffffffffffffffffffffffffffffffffff1673ffffffffffffffffffffffffffffffffffffffff16815260200190815260200160002060008673ffffffffffffffffffffffffffffffffffffffff1673ffffffffffffffffffffffffffffffffffffffff168152602001908152602001600020549050838110156111e5576040517f08c379a00000000000000000000000000000000000000000000000000000000081526004016111dc906122b0565b60405180910390fd5b6111f28286868403611410565b60019250505092915050565b600080611209611408565b9050611216818585611667565b600191505092915050565b6000600160008473ffffffffffffffffffffffffffffffffffffffff1673ffffffffffffffffffffffffffffffffffffffff16815260200190815260200160002060008373ffffffffffffffffffffffffffffffffffffffff1673ffffffffffffffffffffffffffffffffffffffff16815260200190815260200160002054905092915050565b600073ffffffffffffffffffffffffffffffffffffffff168273ffffffffffffffffffffffffffffffffffffffff161415611318576040517f08c379a000000000000000000000000000000000000000000000000000000000815260040161130f9061231c565b60405180910390fd5b61132460008383611b42565b806002600082825461133691906120b4565b92505081905550806000808473ffffffffffffffffffffffffffffffffffffffff1673ffffffffffffffffffffffffffffffffffffffff168152602001908152602001600020600082825461138b91906120b4565b925050819055508173ffffffffffffffffffffffffffffffffffffffff16600073ffffffffffffffffffffffffffffffffffffffff167fddf252ad1be2c89b69c2b068fc378daa952ba7f163c4a11628f55a4df523b3ef836040516113f09190611e3a565b60405180910390a361140460008383611bd9565b5050565b600033905090565b600073ffffffffffffffffffffffffffffffffffffffff168373ffffffffffffffffffffffffffffffffffffffff161415611480576040517f08c379a0000000000000000000000000000000000000000000000000000000008152600401611477906123ae565b60405180910390fd5b600073ffffffffffffffffffffffffffffffffffffffff168273ffffffffffffffffffffffffffffffffffffffff1614156114f0576040517f08c379a00000000000000000000000000000000000000000000000000000000081526004016114e790612440565b60405180910390fd5b80600160008573ffffffffffffffffffffffffffffffffffffffff1673ffffffffffffffffffffffffffffffffffffffff16815260200190815260200160002060008473ffffffffffffffffffffffffffffffffffffffff1673ffffffffffffffffffffffffffffffffffffffff168152602001908152602001600020819055508173ffffffffffffffffffffffffffffffffffffffff168373ffffffffffffffffffffffffffffffffffffffff167f8c5be1e5ebec7d5bd14f71427d1e84f3dd0314c0f7b2291e5b200ac8c7c3b925836040516115ce9190611e3a565b60405180910390a3505050565b60006115e78484611221565b90507fffffffffffffffffffffffffffffffffffffffffffffffffffffffffffffffff81146116615781811015611653576040517f08c379a000000000000000000000000000000000000000000000000000000000815260040161164a906124ac565b60405180910390fd5b6116608484848403611410565b5b50505050565b600073ffffffffffffffffffffffffffffffffffffffff168373ffffffffffffffffffffffffffffffffffffffff1614156116d7576040517f08c379a00000000000000000000000000000000000000000000000000000000081526004016116ce9061253e565b60405180910390fd5b600073ffffffffffffffffffffffffffffffffffffffff168273ffffffffffffffffffffffffffffffffffffffff161415611747576040517f08c379a000000000000000000000000000000000000000000000000000000000815260040161173e906125d0565b60405180910390fd5b611752838383611b42565b60008060008573ffffffffffffffffffffffffffffffffffffffff1673ffffffffffffffffffffffffffffffffffffffff168152602001908152602001600020549050818110156117d8576040517f08c379a00000000000000000000000000000000000000000000000000000000081526004016117cf90612662565b60405180910390fd5b8181036000808673ffffffffffffffffffffffffffffffffffffffff1673ffffffffffffffffffffffffffffffffffffffff16815260200190815260200160002081905550816000808573ffffffffffffffffffffffffffffffffffffffff1673ffffffffffffffffffffffffffffffffffffffff168152602001908152602001600020600082825461186b91906120b4565b925050819055508273ffffffffffffffffffffffffffffffffffffffff168473ffffffffffffffffffffffffffffffffffffffff167fddf252ad1be2c89b69c2b068fc378daa952ba7f163c4a11628f55a4df523b3ef846040516118cf9190611e3a565b60405180910390a36118e2848484611bd9565b50505050565b7f00000000000000000000000000000000000000000000000000000000000000008161191261066b565b61191c91906120b4565b111561195d576040517f08c379a0000000000000000000000000000000000000000000000000000000008152600401611954906126ce565b60405180910390fd5b61196782826112a8565b5050565b600073ffffffffffffffffffffffffffffffffffffffff168273ffffffffffffffffffffffffffffffffffffffff1614156119db576040517f08c379a00000000000000000000000000000000000000000000000000000000081526004016119d290612760565b60405180910390fd5b6119e782600083611b42565b60008060008473ffffffffffffffffffffffffffffffffffffffff1673ffffffffffffffffffffffffffffffffffffffff16815260200190815260200160002054905081811015611a6d576040517f08c379a0000000000000000000000000000000000000000000000000000000008152600401611a64906127f2565b60405180910390fd5b8181036000808573ffffffffffffffffffffffffffffffffffffffff1673ffffffffffffffffffffffffffffffffffffffff168152602001908152602001600020819055508160026000828254611ac49190612812565b92505081905550600073ffffffffffffffffffffffffffffffffffffffff168373ffffffffffffffffffffffffffffffffffffffff167fddf252ad1be2c89b69c2b068fc378daa952ba7f163c4a11628f55a4df523b3ef84604051611b299190611e3a565b60405180910390a3611b3d83600084611bd9565b505050565b611b4b83611bde565b15611b8b576040517f08c379a0000000000000000000000000000000000000000000000000000000008152600401611b8290612892565b60405180910390fd5b611b9482611bde565b15611bd4576040517f08c379a0000000000000000000000000000000000000000000000000000000008152600401611bcb906128fe565b60405180910390fd5b505050565b505050565b6000600660008373ffffffffffffffffffffffffffffffffffffffff1673ffffffffffffffffffffffffffffffffffffffff16815260200190815260200160002060009054906101000a900460ff169050919050565b600081519050919050565b600082825260208201905092915050565b60005b83811015611c6e578082015181840152602081019050611c53565b83811115611c7d576000848401525b50505050565b6000601f19601f8301169050919050565b6000611c9f82611c34565b611ca98185611c3f565b9350611cb9818560208601611c50565b611cc281611c83565b840191505092915050565b60006020820190508181036000830152611ce78184611c94565b905092915050565b600080fd5b600073ffffffffffffffffffffffffffffffffffffffff82169050919050565b6000611d1f82611cf4565b9050919050565b611d2f81611d14565b8114611d3a57600080fd5b50565b600081359050611d4c81611d26565b92915050565b6000819050919050565b611d6581611d52565b8114611d7057600080fd5b50565b600081359050611d8281611d5c565b92915050565b60008060408385031215611d9f57611d9e611cef565b5b6000611dad85828601611d3d565b9250506020611dbe85828601611d73565b9150509250929050565b60008115159050919050565b611ddd81611dc8565b82525050565b6000602082019050611df86000830184611dd4565b92915050565b600060208284031215611e1457611e13611cef565b5b6000611e2284828501611d73565b91505092915050565b611e3481611d52565b82525050565b6000602082019050611e4f6000830184611e2b565b92915050565b600080600060608486031215611e6e57611e6d611cef565b5b6000611e7c86828701611d3d565b9350506020611e8d86828701611d3d565b9250506040611e9e86828701611d73565b9150509250925092565b600060208284031215611ebe57611ebd611cef565b5b6000611ecc84828501611d3d565b91505092915050565b600060ff82169050919050565b611eeb81611ed5565b82525050565b6000602082019050611f066000830184611ee2565b92915050565b60008060408385031215611f2357611f22611cef565b5b6000611f3185828601611d3d565b9250506020611f4285828601611d3d565b9150509250929050565b7f4e487b7100000000000000000000000000000000000000000000000000000000600052602260045260246000fd5b60006002820490506001821680611f9357607f821691505b60208210811415611fa757611fa6611f4c565b5b50919050565b7f4f6e6c79206f776e657220686173207065726d697373696f6e73000000000000600082015250565b6000611fe3601a83611c3f565b9150611fee82611fad565b602082019050919050565b6000602082019050818103600083015261201281611fd6565b9050919050565b7f4e6f7420656e6f7567682066756e647300000000000000000000000000000000600082015250565b600061204f601083611c3f565b915061205a82612019565b602082019050919050565b6000602082019050818103600083015261207e81612042565b9050919050565b7f4e487b7100000000000000000000000000000000000000000000000000000000600052601160045260246000fd5b60006120bf82611d52565b91506120ca83611d52565b9250827fffffffffffffffffffffffffffffffffffffffffffffffffffffffffffffffff038211156120ff576120fe612085565b5b828201905092915050565b7f4e6f7420656e6f756768207065726d697373696f6e7300000000000000000000600082015250565b6000612140601683611c3f565b915061214b8261210a565b602082019050919050565b6000602082019050818103600083015261216f81612133565b9050919050565b61217f81611d14565b82525050565b600060608201905061219a6000830186612176565b6121a76020830185612176565b6121b46040830184611e2b565b949350505050565b60006040820190506121d16000830185612176565b6121de6020830184611e2b565b9392505050565b6121ee81611dc8565b81146121f957600080fd5b50565b60008151905061220b816121e5565b92915050565b60006020828403121561222757612226611cef565b5b6000612235848285016121fc565b91505092915050565b7f45524332303a2064656372656173656420616c6c6f77616e63652062656c6f7760008201527f207a65726f000000000000000000000000000000000000000000000000000000602082015250565b600061229a602583611c3f565b91506122a58261223e565b604082019050919050565b600060208201905081810360008301526122c98161228d565b9050919050565b7f45524332303a206d696e7420746f20746865207a65726f206164647265737300600082015250565b6000612306601f83611c3f565b9150612311826122d0565b602082019050919050565b60006020820190508181036000830152612335816122f9565b9050919050565b7f45524332303a20617070726f76652066726f6d20746865207a65726f2061646460008201527f7265737300000000000000000000000000000000000000000000000000000000602082015250565b6000612398602483611c3f565b91506123a38261233c565b604082019050919050565b600060208201905081810360008301526123c78161238b565b9050919050565b7f45524332303a20617070726f766520746f20746865207a65726f20616464726560008201527f7373000000000000000000000000000000000000000000000000000000000000602082015250565b600061242a602283611c3f565b9150612435826123ce565b604082019050919050565b600060208201905081810360008301526124598161241d565b9050919050565b7f45524332303a20696e73756666696369656e7420616c6c6f77616e6365000000600082015250565b6000612496601d83611c3f565b91506124a182612460565b602082019050919050565b600060208201905081810360008301526124c581612489565b9050919050565b7f45524332303a207472616e736665722066726f6d20746865207a65726f20616460008201527f6472657373000000000000000000000000000000000000000000000000000000602082015250565b6000612528602583611c3f565b9150612533826124cc565b604082019050919050565b600060208201905081810360008301526125578161251b565b9050919050565b7f45524332303a207472616e7366657220746f20746865207a65726f206164647260008201527f6573730000000000000000000000000000000000000000000000000000000000602082015250565b60006125ba602383611c3f565b91506125c58261255e565b604082019050919050565b600060208201905081810360008301526125e9816125ad565b9050919050565b7f45524332303a207472616e7366657220616d6f756e742065786365656473206260008201527f616c616e63650000000000000000000000000000000000000000000000000000602082015250565b600061264c602683611c3f565b9150612657826125f0565b604082019050919050565b6000602082019050818103600083015261267b8161263f565b9050919050565b7f45524332303a206d617820737570706c79206578636565646564000000000000600082015250565b60006126b8601a83611c3f565b91506126c382612682565b602082019050919050565b600060208201905081810360008301526126e7816126ab565b9050919050565b7f45524332303a206275726e2066726f6d20746865207a65726f2061646472657360008201527f7300000000000000000000000000000000000000000000000000000000000000602082015250565b600061274a602183611c3f565b9150612755826126ee565b604082019050919050565b600060208201905081810360008301526127798161273d565b9050919050565b7f45524332303a206275726e20616d6f756e7420657863656564732062616c616e60008201527f6365000000000000000000000000000000000000000000000000000000000000602082015250565b60006127dc602283611c3f565b91506127e782612780565b604082019050919050565b6000602082019050818103600083015261280b816127cf565b9050919050565b600061281d82611d52565b915061282883611d52565b92508282101561283b5761283a612085565b5b828203905092915050565b7f53656e64657220697320696e2074686520626c61636b6c697374000000000000600082015250565b600061287c601a83611c3f565b915061288782612846565b602082019050919050565b600060208201905081810360008301526128ab8161286f565b9050919050565b7f526563697069656e7420697320696e2074686520626c61636b6c697374000000600082015250565b60006128e8601d83611c3f565b91506128f3826128b2565b602082019050919050565b60006020820190508181036000830152612917816128db565b905091905056fea2646970667358221220239b1733fe88a5efde62267712e61b4b85759d910c1482e4aa448a11fc6c098d64736f6c634300080a0033",
  "immutableReferences": {
    "850": [
      {
        "length": 32,
        "start": 6378
      }
    ]
  },
  "source": "// SPDX-License-Identifier: MIT\npragma solidity ^0.8.10;\n\nimport \"@openzeppelin/contracts/token/ERC20/ERC20.sol\";\nimport \"@openzeppelin/contracts/token/ERC721/IERC721.sol\";\n\ncontract CutiesToken is ERC20 {\n\n  address private _owner;\n  uint256 private immutable _maxSupply;\n  mapping (address => bool) public blackList;\n  mapping (address => bool) public operatorList;\n\n  constructor(\n    string memory name,\n    string memory symbol,\n    uint256 initialSupply,\n    uint256 maxSupply\n  ) ERC20(name, symbol) {\n    require(maxSupply > 0, \"ERC20: max supply is 0\");\n    _maxSupply = maxSupply;\n    _mint(msg.sender, initialSupply);\n    _owner = _msgSender();\n  }\n\n  /** Withdraw */\n  function withdrawToken(address _tokenContract, uint256 _amount) public onlyOwner {\n    IERC20 tokenContract = IERC20(_tokenContract);\n\n    tokenContract.transfer(msg.sender, _amount);\n  }\n\n  function withdrawNativeToken(uint256 _amount) public onlyOwner {\n    require(address(this).balance >= _amount, 'Not enough funds');\n    payable(msg.sender).transfer(_amount);\n  }\n\n  function withdrawNFT(address _nftContract, uint256 tokenId) public onlyOwner {\n    IERC721 tokenContract = IERC721(_nftContract);\n\n    tokenContract.transferFrom(address(this), msg.sender, tokenId);\n  }\n\n  /** Mint */\n  function mint(address to, uint256 amount) public onlyOwner {\n    _mint(to, amount);\n  }\n\n  function _mint(address account, uint256 amount) internal virtual override {\n    require(ERC20.totalSupply() + amount <= _maxSupply, \"ERC20: max supply exceeded\");\n    super._mint(account, amount);\n  }\n\n  /** Burning */\n  function burn(uint256 amount) public onlyOwner {\n    _burn(_msgSender(), amount);\n  }\n\n  function burnFrom(address account, uint256 amount) public onlyOwner {\n    _spendAllowance(account, _msgSender(), amount);\n    _burn(account, amount);\n  }\n\n  /** Role management */\n  function addToOperatorList(address _wallet) public onlyOwner {\n    operatorList[_wallet] = true;\n  }\n\n  function removeFromOperatorList(address _wallet) public onlyOwner {\n    delete operatorList[_wallet];\n  }\n\n  modifier onlyOwner() {\n    require(_owner == _msgSender(), \"Only owner has permissions\");\n    _;\n  }\n\n  modifier onlyOperatorRole() {\n    require(_owner == _msgSender() || operatorList[_msgSender()], \"Not enough permissions\");\n    _;\n  }\n\n  /** Blacklist */\n  function addToBlackList(address _wallet) public onlyOperatorRole {\n    blackList[_wallet] = true;\n  }\n\n  function removeFromBlackList(address _wallet) public onlyOperatorRole {\n    delete blackList[_wallet];\n  }\n\n  function _beforeTokenTransfer(address from, address to, uint256) internal view override {\n    require(!_isInBlackList(from), \"Sender is in the blacklist\");\n    require(!_isInBlackList(to), \"Recipient is in the blacklist\");\n  }\n\n  function _isInBlackList(address _wallet) internal view returns (bool) {\n    return blackList[_wallet];\n  }\n}\n",
  "sourcePath": "/var/www/cutties/contracts/CutiesToken.sol",
  "compiler": {
    "name": "solc",
    "version": "0.8.10+commit.fc410830.Emscripten.clang"
  },
  "schemaVersion": "3.4.4",
  "updatedAt": "2022-02-16T11:52:29.841Z",
  "networkType": "ethereum",
  "devdoc": {
    "kind": "dev",
    "methods": {
      "allowance(address,address)": {
        "details": "See {IERC20-allowance}."
      },
      "approve(address,uint256)": {
        "details": "See {IERC20-approve}. NOTE: If `amount` is the maximum `uint256`, the allowance is not updated on `transferFrom`. This is semantically equivalent to an infinite approval. Requirements: - `spender` cannot be the zero address."
      },
      "balanceOf(address)": {
        "details": "See {IERC20-balanceOf}."
      },
      "decimals()": {
        "details": "Returns the number of decimals used to get its user representation. For example, if `decimals` equals `2`, a balance of `505` tokens should be displayed to a user as `5.05` (`505 / 10 ** 2`). Tokens usually opt for a value of 18, imitating the relationship between Ether and Wei. This is the value {ERC20} uses, unless this function is overridden; NOTE: This information is only used for _display_ purposes: it in no way affects any of the arithmetic of the contract, including {IERC20-balanceOf} and {IERC20-transfer}."
      },
      "decreaseAllowance(address,uint256)": {
        "details": "Atomically decreases the allowance granted to `spender` by the caller. This is an alternative to {approve} that can be used as a mitigation for problems described in {IERC20-approve}. Emits an {Approval} event indicating the updated allowance. Requirements: - `spender` cannot be the zero address. - `spender` must have allowance for the caller of at least `subtractedValue`."
      },
      "increaseAllowance(address,uint256)": {
        "details": "Atomically increases the allowance granted to `spender` by the caller. This is an alternative to {approve} that can be used as a mitigation for problems described in {IERC20-approve}. Emits an {Approval} event indicating the updated allowance. Requirements: - `spender` cannot be the zero address."
      },
      "name()": {
        "details": "Returns the name of the token."
      },
      "symbol()": {
        "details": "Returns the symbol of the token, usually a shorter version of the name."
      },
      "totalSupply()": {
        "details": "See {IERC20-totalSupply}."
      },
      "transfer(address,uint256)": {
        "details": "See {IERC20-transfer}. Requirements: - `to` cannot be the zero address. - the caller must have a balance of at least `amount`."
      },
      "transferFrom(address,address,uint256)": {
        "details": "See {IERC20-transferFrom}. Emits an {Approval} event indicating the updated allowance. This is not required by the EIP. See the note at the beginning of {ERC20}. NOTE: Does not update the allowance if the current allowance is the maximum `uint256`. Requirements: - `from` and `to` cannot be the zero address. - `from` must have a balance of at least `amount`. - the caller must have allowance for ``from``'s tokens of at least `amount`."
      }
    },
    "version": 1
  },
  "userdoc": {
    "kind": "user",
    "methods": {
      "addToBlackList(address)": {
        "notice": "Blacklist "
      },
      "addToOperatorList(address)": {
        "notice": "Role management "
      },
      "burn(uint256)": {
        "notice": "Burning "
      },
      "mint(address,uint256)": {
        "notice": "Mint "
      },
      "withdrawToken(address,uint256)": {
        "notice": "Withdraw "
      }
    },
    "version": 1
  }
}