{
  "contractName": "CutiesToken",
  "abi": [
    {
      "inputs": [
        {
          "internalType": "string",
          "name": "name",
          "type": "string"
        },
        {
          "internalType": "string",
          "name": "symbol",
          "type": "string"
        },
        {
          "internalType": "uint256",
          "name": "initialSupply",
          "type": "uint256"
        },
        {
          "internalType": "uint256",
          "name": "maxSupply",
          "type": "uint256"
        }
      ],
      "stateMutability": "nonpayable",
      "type": "constructor"
    },
    {
      "anonymous": false,
      "inputs": [
        {
          "indexed": true,
          "internalType": "address",
          "name": "owner",
          "type": "address"
        },
        {
          "indexed": true,
          "internalType": "address",
          "name": "spender",
          "type": "address"
        },
        {
          "indexed": false,
          "internalType": "uint256",
          "name": "value",
          "type": "uint256"
        }
      ],
      "name": "Approval",
      "type": "event"
    },
    {
      "anonymous": false,
      "inputs": [
        {
          "indexed": true,
          "internalType": "bytes32",
          "name": "role",
          "type": "bytes32"
        },
        {
          "indexed": true,
          "internalType": "bytes32",
          "name": "previousAdminRole",
          "type": "bytes32"
        },
        {
          "indexed": true,
          "internalType": "bytes32",
          "name": "newAdminRole",
          "type": "bytes32"
        }
      ],
      "name": "RoleAdminChanged",
      "type": "event"
    },
    {
      "anonymous": false,
      "inputs": [
        {
          "indexed": true,
          "internalType": "bytes32",
          "name": "role",
          "type": "bytes32"
        },
        {
          "indexed": true,
          "internalType": "address",
          "name": "account",
          "type": "address"
        },
        {
          "indexed": true,
          "internalType": "address",
          "name": "sender",
          "type": "address"
        }
      ],
      "name": "RoleGranted",
      "type": "event"
    },
    {
      "anonymous": false,
      "inputs": [
        {
          "indexed": true,
          "internalType": "bytes32",
          "name": "role",
          "type": "bytes32"
        },
        {
          "indexed": true,
          "internalType": "address",
          "name": "account",
          "type": "address"
        },
        {
          "indexed": true,
          "internalType": "address",
          "name": "sender",
          "type": "address"
        }
      ],
      "name": "RoleRevoked",
      "type": "event"
    },
    {
      "anonymous": false,
      "inputs": [
        {
          "indexed": true,
          "internalType": "address",
          "name": "from",
          "type": "address"
        },
        {
          "indexed": true,
          "internalType": "address",
          "name": "to",
          "type": "address"
        },
        {
          "indexed": false,
          "internalType": "uint256",
          "name": "value",
          "type": "uint256"
        }
      ],
      "name": "Transfer",
      "type": "event"
    },
    {
      "inputs": [],
      "name": "DEFAULT_ADMIN_ROLE",
      "outputs": [
        {
          "internalType": "bytes32",
          "name": "",
          "type": "bytes32"
        }
      ],
      "stateMutability": "view",
      "type": "function",
      "constant": true
    },
    {
      "inputs": [],
      "name": "OPERATOR_ROLE",
      "outputs": [
        {
          "internalType": "bytes32",
          "name": "",
          "type": "bytes32"
        }
      ],
      "stateMutability": "view",
      "type": "function",
      "constant": true
    },
    {
      "inputs": [
        {
          "internalType": "address",
          "name": "owner",
          "type": "address"
        },
        {
          "internalType": "address",
          "name": "spender",
          "type": "address"
        }
      ],
      "name": "allowance",
      "outputs": [
        {
          "internalType": "uint256",
          "name": "",
          "type": "uint256"
        }
      ],
      "stateMutability": "view",
      "type": "function",
      "constant": true
    },
    {
      "inputs": [
        {
          "internalType": "address",
          "name": "spender",
          "type": "address"
        },
        {
          "internalType": "uint256",
          "name": "amount",
          "type": "uint256"
        }
      ],
      "name": "approve",
      "outputs": [
        {
          "internalType": "bool",
          "name": "",
          "type": "bool"
        }
      ],
      "stateMutability": "nonpayable",
      "type": "function"
    },
    {
      "inputs": [
        {
          "internalType": "address",
          "name": "account",
          "type": "address"
        }
      ],
      "name": "balanceOf",
      "outputs": [
        {
          "internalType": "uint256",
          "name": "",
          "type": "uint256"
        }
      ],
      "stateMutability": "view",
      "type": "function",
      "constant": true
    },
    {
      "inputs": [
        {
          "internalType": "address",
          "name": "",
          "type": "address"
        }
      ],
      "name": "blackList",
      "outputs": [
        {
          "internalType": "bool",
          "name": "",
          "type": "bool"
        }
      ],
      "stateMutability": "view",
      "type": "function",
      "constant": true
    },
    {
      "inputs": [
        {
          "internalType": "uint256",
          "name": "amount",
          "type": "uint256"
        }
      ],
      "name": "burn",
      "outputs": [],
      "stateMutability": "nonpayable",
      "type": "function"
    },
    {
      "inputs": [
        {
          "internalType": "address",
          "name": "account",
          "type": "address"
        },
        {
          "internalType": "uint256",
          "name": "amount",
          "type": "uint256"
        }
      ],
      "name": "burnFrom",
      "outputs": [],
      "stateMutability": "nonpayable",
      "type": "function"
    },
    {
      "inputs": [],
      "name": "cap",
      "outputs": [
        {
          "internalType": "uint256",
          "name": "",
          "type": "uint256"
        }
      ],
      "stateMutability": "view",
      "type": "function",
      "constant": true
    },
    {
      "inputs": [],
      "name": "decimals",
      "outputs": [
        {
          "internalType": "uint8",
          "name": "",
          "type": "uint8"
        }
      ],
      "stateMutability": "view",
      "type": "function",
      "constant": true
    },
    {
      "inputs": [
        {
          "internalType": "address",
          "name": "spender",
          "type": "address"
        },
        {
          "internalType": "uint256",
          "name": "subtractedValue",
          "type": "uint256"
        }
      ],
      "name": "decreaseAllowance",
      "outputs": [
        {
          "internalType": "bool",
          "name": "",
          "type": "bool"
        }
      ],
      "stateMutability": "nonpayable",
      "type": "function"
    },
    {
      "inputs": [
        {
          "internalType": "bytes32",
          "name": "role",
          "type": "bytes32"
        }
      ],
      "name": "getRoleAdmin",
      "outputs": [
        {
          "internalType": "bytes32",
          "name": "",
          "type": "bytes32"
        }
      ],
      "stateMutability": "view",
      "type": "function",
      "constant": true
    },
    {
      "inputs": [
        {
          "internalType": "bytes32",
          "name": "role",
          "type": "bytes32"
        },
        {
          "internalType": "address",
          "name": "account",
          "type": "address"
        }
      ],
      "name": "grantRole",
      "outputs": [],
      "stateMutability": "nonpayable",
      "type": "function"
    },
    {
      "inputs": [
        {
          "internalType": "bytes32",
          "name": "role",
          "type": "bytes32"
        },
        {
          "internalType": "address",
          "name": "account",
          "type": "address"
        }
      ],
      "name": "hasRole",
      "outputs": [
        {
          "internalType": "bool",
          "name": "",
          "type": "bool"
        }
      ],
      "stateMutability": "view",
      "type": "function",
      "constant": true
    },
    {
      "inputs": [
        {
          "internalType": "address",
          "name": "spender",
          "type": "address"
        },
        {
          "internalType": "uint256",
          "name": "addedValue",
          "type": "uint256"
        }
      ],
      "name": "increaseAllowance",
      "outputs": [
        {
          "internalType": "bool",
          "name": "",
          "type": "bool"
        }
      ],
      "stateMutability": "nonpayable",
      "type": "function"
    },
    {
      "inputs": [],
      "name": "name",
      "outputs": [
        {
          "internalType": "string",
          "name": "",
          "type": "string"
        }
      ],
      "stateMutability": "view",
      "type": "function",
      "constant": true
    },
    {
      "inputs": [
        {
          "internalType": "bytes32",
          "name": "role",
          "type": "bytes32"
        },
        {
          "internalType": "address",
          "name": "account",
          "type": "address"
        }
      ],
      "name": "renounceRole",
      "outputs": [],
      "stateMutability": "nonpayable",
      "type": "function"
    },
    {
      "inputs": [
        {
          "internalType": "bytes32",
          "name": "role",
          "type": "bytes32"
        },
        {
          "internalType": "address",
          "name": "account",
          "type": "address"
        }
      ],
      "name": "revokeRole",
      "outputs": [],
      "stateMutability": "nonpayable",
      "type": "function"
    },
    {
      "inputs": [
        {
          "internalType": "bytes4",
          "name": "interfaceId",
          "type": "bytes4"
        }
      ],
      "name": "supportsInterface",
      "outputs": [
        {
          "internalType": "bool",
          "name": "",
          "type": "bool"
        }
      ],
      "stateMutability": "view",
      "type": "function",
      "constant": true
    },
    {
      "inputs": [],
      "name": "symbol",
      "outputs": [
        {
          "internalType": "string",
          "name": "",
          "type": "string"
        }
      ],
      "stateMutability": "view",
      "type": "function",
      "constant": true
    },
    {
      "inputs": [],
      "name": "totalSupply",
      "outputs": [
        {
          "internalType": "uint256",
          "name": "",
          "type": "uint256"
        }
      ],
      "stateMutability": "view",
      "type": "function",
      "constant": true
    },
    {
      "inputs": [
        {
          "internalType": "address",
          "name": "to",
          "type": "address"
        },
        {
          "internalType": "uint256",
          "name": "amount",
          "type": "uint256"
        }
      ],
      "name": "transfer",
      "outputs": [
        {
          "internalType": "bool",
          "name": "",
          "type": "bool"
        }
      ],
      "stateMutability": "nonpayable",
      "type": "function"
    },
    {
      "inputs": [
        {
          "internalType": "address",
          "name": "from",
          "type": "address"
        },
        {
          "internalType": "address",
          "name": "to",
          "type": "address"
        },
        {
          "internalType": "uint256",
          "name": "amount",
          "type": "uint256"
        }
      ],
      "name": "transferFrom",
      "outputs": [
        {
          "internalType": "bool",
          "name": "",
          "type": "bool"
        }
      ],
      "stateMutability": "nonpayable",
      "type": "function"
    },
    {
      "inputs": [
        {
          "internalType": "address",
          "name": "to",
          "type": "address"
        },
        {
          "internalType": "uint256",
          "name": "amount",
          "type": "uint256"
        }
      ],
      "name": "mint",
      "outputs": [],
      "stateMutability": "nonpayable",
      "type": "function"
    },
    {
      "inputs": [
        {
          "internalType": "address",
          "name": "_tokenContract",
          "type": "address"
        },
        {
          "internalType": "uint256",
          "name": "_amount",
          "type": "uint256"
        }
      ],
      "name": "withdrawToken",
      "outputs": [],
      "stateMutability": "nonpayable",
      "type": "function"
    },
    {
      "inputs": [
        {
          "internalType": "address",
          "name": "_wallet",
          "type": "address"
        }
      ],
      "name": "addToBlackList",
      "outputs": [],
      "stateMutability": "nonpayable",
      "type": "function"
    },
    {
      "inputs": [
        {
          "internalType": "address",
          "name": "_wallet",
          "type": "address"
        }
      ],
      "name": "removeFromBlackList",
      "outputs": [],
      "stateMutability": "nonpayable",
      "type": "function"
    }
  ],
  "bytecode": "0x60a06040523480156200001157600080fd5b50604051620038e4380380620038e483398181016040528101906200003791906200084d565b808484816004908051906020019062000052929190620005c5565b5080600590805190602001906200006b929190620005c5565b50505060008111620000b4576040517f08c379a0000000000000000000000000000000000000000000000000000000008152600401620000ab906200095e565b60405180910390fd5b806080818152505050620000cf33836200012060201b60201c565b620000e46000801b336200013b60201b60201c565b620001167f523a704056dcd17bcf83bed8b68c59416dac1119be77755efe3bde0a64e46e0c336200013b60201b60201c565b5050505062000c67565b6200013782826200022c60201b62000df11760201c565b5050565b6200014d8282620002bd60201b60201c565b6200022857600160008084815260200190815260200160002060000160008373ffffffffffffffffffffffffffffffffffffffff1673ffffffffffffffffffffffffffffffffffffffff16815260200190815260200160002060006101000a81548160ff021916908315150217905550620001cd6200032760201b60201c565b73ffffffffffffffffffffffffffffffffffffffff168173ffffffffffffffffffffffffffffffffffffffff16837f2f8788117e7eff1d82e926ec794901d17c78024a50270940304540a733656f0d60405160405180910390a45b5050565b6200023c6200032f60201b60201c565b81620002526200033960201b620006bb1760201c565b6200025e9190620009af565b1115620002a2576040517f08c379a0000000000000000000000000000000000000000000000000000000008152600401620002999062000a5c565b60405180910390fd5b620002b982826200034360201b62000e5b1760201c565b5050565b600080600084815260200190815260200160002060000160008373ffffffffffffffffffffffffffffffffffffffff1673ffffffffffffffffffffffffffffffffffffffff16815260200190815260200160002060009054906101000a900460ff16905092915050565b600033905090565b6000608051905090565b6000600354905090565b600073ffffffffffffffffffffffffffffffffffffffff168273ffffffffffffffffffffffffffffffffffffffff161415620003b6576040517f08c379a0000000000000000000000000000000000000000000000000000000008152600401620003ad9062000ace565b60405180910390fd5b620003ca60008383620004bd60201b60201c565b8060036000828254620003de9190620009af565b9250508190555080600160008473ffffffffffffffffffffffffffffffffffffffff1673ffffffffffffffffffffffffffffffffffffffff1681526020019081526020016000206000828254620004369190620009af565b925050819055508173ffffffffffffffffffffffffffffffffffffffff16600073ffffffffffffffffffffffffffffffffffffffff167fddf252ad1be2c89b69c2b068fc378daa952ba7f163c4a11628f55a4df523b3ef836040516200049d919062000b01565b60405180910390a3620004b9600083836200056a60201b60201c565b5050565b620004ce836200056f60201b60201c565b1562000511576040517f08c379a0000000000000000000000000000000000000000000000000000000008152600401620005089062000b6e565b60405180910390fd5b62000522826200056f60201b60201c565b1562000565576040517f08c379a00000000000000000000000000000000000000000000000000000000081526004016200055c9062000be0565b60405180910390fd5b505050565b505050565b6000600660008373ffffffffffffffffffffffffffffffffffffffff1673ffffffffffffffffffffffffffffffffffffffff16815260200190815260200160002060009054906101000a900460ff169050919050565b828054620005d39062000c31565b90600052602060002090601f016020900481019282620005f7576000855562000643565b82601f106200061257805160ff191683800117855562000643565b8280016001018555821562000643579182015b828111156200064257825182559160200191906001019062000625565b5b50905062000652919062000656565b5090565b5b808211156200067157600081600090555060010162000657565b5090565b6000604051905090565b600080fd5b600080fd5b600080fd5b600080fd5b6000601f19601f8301169050919050565b7f4e487b7100000000000000000000000000000000000000000000000000000000600052604160045260246000fd5b620006de8262000693565b810181811067ffffffffffffffff821117156200070057620006ff620006a4565b5b80604052505050565b60006200071562000675565b9050620007238282620006d3565b919050565b600067ffffffffffffffff821115620007465762000745620006a4565b5b620007518262000693565b9050602081019050919050565b60005b838110156200077e57808201518184015260208101905062000761565b838111156200078e576000848401525b50505050565b6000620007ab620007a58462000728565b62000709565b905082815260208101848484011115620007ca57620007c96200068e565b5b620007d78482856200075e565b509392505050565b600082601f830112620007f757620007f662000689565b5b81516200080984826020860162000794565b91505092915050565b6000819050919050565b620008278162000812565b81146200083357600080fd5b50565b60008151905062000847816200081c565b92915050565b600080600080608085870312156200086a57620008696200067f565b5b600085015167ffffffffffffffff8111156200088b576200088a62000684565b5b6200089987828801620007df565b945050602085015167ffffffffffffffff811115620008bd57620008bc62000684565b5b620008cb87828801620007df565b9350506040620008de8782880162000836565b9250506060620008f18782880162000836565b91505092959194509250565b600082825260208201905092915050565b7f45524332304361707065643a2063617020697320300000000000000000000000600082015250565b600062000946601583620008fd565b915062000953826200090e565b602082019050919050565b60006020820190508181036000830152620009798162000937565b9050919050565b7f4e487b7100000000000000000000000000000000000000000000000000000000600052601160045260246000fd5b6000620009bc8262000812565b9150620009c98362000812565b9250827fffffffffffffffffffffffffffffffffffffffffffffffffffffffffffffffff0382111562000a015762000a0062000980565b5b828201905092915050565b7f45524332304361707065643a2063617020657863656564656400000000000000600082015250565b600062000a44601983620008fd565b915062000a518262000a0c565b602082019050919050565b6000602082019050818103600083015262000a778162000a35565b9050919050565b7f45524332303a206d696e7420746f20746865207a65726f206164647265737300600082015250565b600062000ab6601f83620008fd565b915062000ac38262000a7e565b602082019050919050565b6000602082019050818103600083015262000ae98162000aa7565b9050919050565b62000afb8162000812565b82525050565b600060208201905062000b18600083018462000af0565b92915050565b7f53656e64657220697320696e2074686520626c61636b6c697374000000000000600082015250565b600062000b56601a83620008fd565b915062000b638262000b1e565b602082019050919050565b6000602082019050818103600083015262000b898162000b47565b9050919050565b7f526563697069656e7420697320696e2074686520626c61636b6c697374000000600082015250565b600062000bc8601d83620008fd565b915062000bd58262000b90565b602082019050919050565b6000602082019050818103600083015262000bfb8162000bb9565b9050919050565b7f4e487b7100000000000000000000000000000000000000000000000000000000600052602260045260246000fd5b6000600282049050600182168062000c4a57607f821691505b6020821081141562000c615762000c6062000c02565b5b50919050565b608051612c6162000c8360003960006107490152612c616000f3fe608060405234801561001057600080fd5b50600436106101a95760003560e01c806342966c68116100f95780639e281a9811610097578063a9059cbb11610071578063a9059cbb146104f2578063d547741f14610522578063dd62ed3e1461053e578063f5b541a61461056e576101a9565b80639e281a9814610488578063a217fddf146104a4578063a457c2d7146104c2576101a9565b806370a08231116100d357806370a08231146103ee57806379cc67901461041e57806391d148541461043a57806395d89b411461046a576101a9565b806342966c68146103865780634838d165146103a25780634a49ac4c146103d2576101a9565b80632f2ff15d1161016657806336568abe1161014057806336568abe14610302578063395093511461031e57806340c10f191461034e578063417c73a71461036a576101a9565b80632f2ff15d146102aa578063313ce567146102c6578063355274ea146102e4576101a9565b806301ffc9a7146101ae57806306fdde03146101de578063095ea7b3146101fc57806318160ddd1461022c57806323b872dd1461024a578063248a9ca31461027a575b600080fd5b6101c860048036038101906101c39190611cd9565b61058c565b6040516101d59190611d21565b60405180910390f35b6101e6610606565b6040516101f39190611dd5565b60405180910390f35b61021660048036038101906102119190611e8b565b610698565b6040516102239190611d21565b60405180910390f35b6102346106bb565b6040516102419190611eda565b60405180910390f35b610264600480360381019061025f9190611ef5565b6106c5565b6040516102719190611d21565b60405180910390f35b610294600480360381019061028f9190611f7e565b6106f4565b6040516102a19190611fba565b60405180910390f35b6102c460048036038101906102bf9190611fd5565b610713565b005b6102ce61073c565b6040516102db9190612031565b60405180910390f35b6102ec610745565b6040516102f99190611eda565b60405180910390f35b61031c60048036038101906103179190611fd5565b61076d565b005b61033860048036038101906103339190611e8b565b6107f0565b6040516103459190611d21565b60405180910390f35b61036860048036038101906103639190611e8b565b61089a565b005b610384600480360381019061037f919061204c565b6108be565b005b6103a0600480360381019061039b9190612079565b61094c565b005b6103bc60048036038101906103b7919061204c565b610960565b6040516103c99190611d21565b60405180910390f35b6103ec60048036038101906103e7919061204c565b610980565b005b6104086004803603810190610403919061204c565b610a05565b6040516104159190611eda565b60405180910390f35b61043860048036038101906104339190611e8b565b610a4e565b005b610454600480360381019061044f9190611fd5565b610a6e565b6040516104619190611d21565b60405180910390f35b610472610ad8565b60405161047f9190611dd5565b60405180910390f35b6104a2600480360381019061049d9190611e8b565b610b6a565b005b6104ac610c09565b6040516104b99190611fba565b60405180910390f35b6104dc60048036038101906104d79190611e8b565b610c10565b6040516104e99190611d21565b60405180910390f35b61050c60048036038101906105079190611e8b565b610cfa565b6040516105199190611d21565b60405180910390f35b61053c60048036038101906105379190611fd5565b610d1d565b005b610558600480360381019061055391906120a6565b610d46565b6040516105659190611eda565b60405180910390f35b610576610dcd565b6040516105839190611fba565b60405180910390f35b60007f7965db0b000000000000000000000000000000000000000000000000000000007bffffffffffffffffffffffffffffffffffffffffffffffffffffffff1916827bffffffffffffffffffffffffffffffffffffffffffffffffffffffff191614806105ff57506105fe82610fbc565b5b9050919050565b60606004805461061590612115565b80601f016020809104026020016040519081016040528092919081815260200182805461064190612115565b801561068e5780601f106106635761010080835404028352916020019161068e565b820191906000526020600020905b81548152906001019060200180831161067157829003601f168201915b5050505050905090565b6000806106a3611026565b90506106b081858561102e565b600191505092915050565b6000600354905090565b6000806106d0611026565b90506106dd8582856111f9565b6106e8858585611285565b60019150509392505050565b6000806000838152602001908152602001600020600101549050919050565b61071c826106f4565b61072d81610728611026565b611509565b61073783836115a6565b505050565b60006012905090565b60007f0000000000000000000000000000000000000000000000000000000000000000905090565b610775611026565b73ffffffffffffffffffffffffffffffffffffffff168173ffffffffffffffffffffffffffffffffffffffff16146107e2576040517f08c379a00000000000000000000000000000000000000000000000000000000081526004016107d9906121b9565b60405180910390fd5b6107ec8282611686565b5050565b6000806107fb611026565b905061088f818585600260008673ffffffffffffffffffffffffffffffffffffffff1673ffffffffffffffffffffffffffffffffffffffff16815260200190815260200160002060008973ffffffffffffffffffffffffffffffffffffffff1673ffffffffffffffffffffffffffffffffffffffff1681526020019081526020016000205461088a9190612208565b61102e565b600191505092915050565b6000801b6108af816108aa611026565b611509565b6108b98383611767565b505050565b7f523a704056dcd17bcf83bed8b68c59416dac1119be77755efe3bde0a64e46e0c6108f0816108eb611026565b611509565b6001600660008473ffffffffffffffffffffffffffffffffffffffff1673ffffffffffffffffffffffffffffffffffffffff16815260200190815260200160002060006101000a81548160ff0219169083151502179055505050565b61095d610957611026565b82611775565b50565b60066020528060005260406000206000915054906101000a900460ff1681565b7f523a704056dcd17bcf83bed8b68c59416dac1119be77755efe3bde0a64e46e0c6109b2816109ad611026565b611509565b600660008373ffffffffffffffffffffffffffffffffffffffff1673ffffffffffffffffffffffffffffffffffffffff16815260200190815260200160002060006101000a81549060ff02191690555050565b6000600160008373ffffffffffffffffffffffffffffffffffffffff1673ffffffffffffffffffffffffffffffffffffffff168152602001908152602001600020549050919050565b610a6082610a5a611026565b836111f9565b610a6a8282611775565b5050565b600080600084815260200190815260200160002060000160008373ffffffffffffffffffffffffffffffffffffffff1673ffffffffffffffffffffffffffffffffffffffff16815260200190815260200160002060009054906101000a900460ff16905092915050565b606060058054610ae790612115565b80601f0160208091040260200160405190810160405280929190818152602001828054610b1390612115565b8015610b605780601f10610b3557610100808354040283529160200191610b60565b820191906000526020600020905b815481529060010190602001808311610b4357829003601f168201915b5050505050905090565b6000801b610b7f81610b7a611026565b611509565b60008390508073ffffffffffffffffffffffffffffffffffffffff1663a9059cbb33856040518363ffffffff1660e01b8152600401610bbf92919061226d565b6020604051808303816000875af1158015610bde573d6000803e3d6000fd5b505050506040513d601f19601f82011682018060405250810190610c0291906122c2565b5050505050565b6000801b81565b600080610c1b611026565b90506000600260008373ffffffffffffffffffffffffffffffffffffffff1673ffffffffffffffffffffffffffffffffffffffff16815260200190815260200160002060008673ffffffffffffffffffffffffffffffffffffffff1673ffffffffffffffffffffffffffffffffffffffff16815260200190815260200160002054905083811015610ce1576040517f08c379a0000000000000000000000000000000000000000000000000000000008152600401610cd890612361565b60405180910390fd5b610cee828686840361102e565b60019250505092915050565b600080610d05611026565b9050610d12818585611285565b600191505092915050565b610d26826106f4565b610d3781610d32611026565b611509565b610d418383611686565b505050565b6000600260008473ffffffffffffffffffffffffffffffffffffffff1673ffffffffffffffffffffffffffffffffffffffff16815260200190815260200160002060008373ffffffffffffffffffffffffffffffffffffffff1673ffffffffffffffffffffffffffffffffffffffff16815260200190815260200160002054905092915050565b7f523a704056dcd17bcf83bed8b68c59416dac1119be77755efe3bde0a64e46e0c81565b610df9610745565b81610e026106bb565b610e0c9190612208565b1115610e4d576040517f08c379a0000000000000000000000000000000000000000000000000000000008152600401610e44906123cd565b60405180910390fd5b610e578282610e5b565b5050565b600073ffffffffffffffffffffffffffffffffffffffff168273ffffffffffffffffffffffffffffffffffffffff161415610ecb576040517f08c379a0000000000000000000000000000000000000000000000000000000008152600401610ec290612439565b60405180910390fd5b610ed76000838361194e565b8060036000828254610ee99190612208565b9250508190555080600160008473ffffffffffffffffffffffffffffffffffffffff1673ffffffffffffffffffffffffffffffffffffffff1681526020019081526020016000206000828254610f3f9190612208565b925050819055508173ffffffffffffffffffffffffffffffffffffffff16600073ffffffffffffffffffffffffffffffffffffffff167fddf252ad1be2c89b69c2b068fc378daa952ba7f163c4a11628f55a4df523b3ef83604051610fa49190611eda565b60405180910390a3610fb8600083836119e5565b5050565b60007f01ffc9a7000000000000000000000000000000000000000000000000000000007bffffffffffffffffffffffffffffffffffffffffffffffffffffffff1916827bffffffffffffffffffffffffffffffffffffffffffffffffffffffff1916149050919050565b600033905090565b600073ffffffffffffffffffffffffffffffffffffffff168373ffffffffffffffffffffffffffffffffffffffff16141561109e576040517f08c379a0000000000000000000000000000000000000000000000000000000008152600401611095906124cb565b60405180910390fd5b600073ffffffffffffffffffffffffffffffffffffffff168273ffffffffffffffffffffffffffffffffffffffff16141561110e576040517f08c379a00000000000000000000000000000000000000000000000000000000081526004016111059061255d565b60405180910390fd5b80600260008573ffffffffffffffffffffffffffffffffffffffff1673ffffffffffffffffffffffffffffffffffffffff16815260200190815260200160002060008473ffffffffffffffffffffffffffffffffffffffff1673ffffffffffffffffffffffffffffffffffffffff168152602001908152602001600020819055508173ffffffffffffffffffffffffffffffffffffffff168373ffffffffffffffffffffffffffffffffffffffff167f8c5be1e5ebec7d5bd14f71427d1e84f3dd0314c0f7b2291e5b200ac8c7c3b925836040516111ec9190611eda565b60405180910390a3505050565b60006112058484610d46565b90507fffffffffffffffffffffffffffffffffffffffffffffffffffffffffffffffff811461127f5781811015611271576040517f08c379a0000000000000000000000000000000000000000000000000000000008152600401611268906125c9565b60405180910390fd5b61127e848484840361102e565b5b50505050565b600073ffffffffffffffffffffffffffffffffffffffff168373ffffffffffffffffffffffffffffffffffffffff1614156112f5576040517f08c379a00000000000000000000000000000000000000000000000000000000081526004016112ec9061265b565b60405180910390fd5b600073ffffffffffffffffffffffffffffffffffffffff168273ffffffffffffffffffffffffffffffffffffffff161415611365576040517f08c379a000000000000000000000000000000000000000000000000000000000815260040161135c906126ed565b60405180910390fd5b61137083838361194e565b6000600160008573ffffffffffffffffffffffffffffffffffffffff1673ffffffffffffffffffffffffffffffffffffffff168152602001908152602001600020549050818110156113f7576040517f08c379a00000000000000000000000000000000000000000000000000000000081526004016113ee9061277f565b60405180910390fd5b818103600160008673ffffffffffffffffffffffffffffffffffffffff1673ffffffffffffffffffffffffffffffffffffffff1681526020019081526020016000208190555081600160008573ffffffffffffffffffffffffffffffffffffffff1673ffffffffffffffffffffffffffffffffffffffff168152602001908152602001600020600082825461148c9190612208565b925050819055508273ffffffffffffffffffffffffffffffffffffffff168473ffffffffffffffffffffffffffffffffffffffff167fddf252ad1be2c89b69c2b068fc378daa952ba7f163c4a11628f55a4df523b3ef846040516114f09190611eda565b60405180910390a36115038484846119e5565b50505050565b6115138282610a6e565b6115a2576115388173ffffffffffffffffffffffffffffffffffffffff1660146119ea565b6115468360001c60206119ea565b604051602001611557929190612873565b6040516020818303038152906040526040517f08c379a00000000000000000000000000000000000000000000000000000000081526004016115999190611dd5565b60405180910390fd5b5050565b6115b08282610a6e565b61168257600160008084815260200190815260200160002060000160008373ffffffffffffffffffffffffffffffffffffffff1673ffffffffffffffffffffffffffffffffffffffff16815260200190815260200160002060006101000a81548160ff021916908315150217905550611627611026565b73ffffffffffffffffffffffffffffffffffffffff168173ffffffffffffffffffffffffffffffffffffffff16837f2f8788117e7eff1d82e926ec794901d17c78024a50270940304540a733656f0d60405160405180910390a45b5050565b6116908282610a6e565b1561176357600080600084815260200190815260200160002060000160008373ffffffffffffffffffffffffffffffffffffffff1673ffffffffffffffffffffffffffffffffffffffff16815260200190815260200160002060006101000a81548160ff021916908315150217905550611708611026565b73ffffffffffffffffffffffffffffffffffffffff168173ffffffffffffffffffffffffffffffffffffffff16837ff6391f5c32d9c69d2a47ea670b442974b53935d1edc7fd64eb21e047a839171b60405160405180910390a45b5050565b6117718282610df1565b5050565b600073ffffffffffffffffffffffffffffffffffffffff168273ffffffffffffffffffffffffffffffffffffffff1614156117e5576040517f08c379a00000000000000000000000000000000000000000000000000000000081526004016117dc9061291f565b60405180910390fd5b6117f18260008361194e565b6000600160008473ffffffffffffffffffffffffffffffffffffffff1673ffffffffffffffffffffffffffffffffffffffff16815260200190815260200160002054905081811015611878576040517f08c379a000000000000000000000000000000000000000000000000000000000815260040161186f906129b1565b60405180910390fd5b818103600160008573ffffffffffffffffffffffffffffffffffffffff1673ffffffffffffffffffffffffffffffffffffffff1681526020019081526020016000208190555081600360008282546118d091906129d1565b92505081905550600073ffffffffffffffffffffffffffffffffffffffff168373ffffffffffffffffffffffffffffffffffffffff167fddf252ad1be2c89b69c2b068fc378daa952ba7f163c4a11628f55a4df523b3ef846040516119359190611eda565b60405180910390a3611949836000846119e5565b505050565b61195783611c26565b15611997576040517f08c379a000000000000000000000000000000000000000000000000000000000815260040161198e90612a51565b60405180910390fd5b6119a082611c26565b156119e0576040517f08c379a00000000000000000000000000000000000000000000000000000000081526004016119d790612abd565b60405180910390fd5b505050565b505050565b6060600060028360026119fd9190612add565b611a079190612208565b67ffffffffffffffff811115611a2057611a1f612b37565b5b6040519080825280601f01601f191660200182016040528015611a525781602001600182028036833780820191505090505b5090507f300000000000000000000000000000000000000000000000000000000000000081600081518110611a8a57611a89612b66565b5b60200101907effffffffffffffffffffffffffffffffffffffffffffffffffffffffffffff1916908160001a9053507f780000000000000000000000000000000000000000000000000000000000000081600181518110611aee57611aed612b66565b5b60200101907effffffffffffffffffffffffffffffffffffffffffffffffffffffffffffff1916908160001a90535060006001846002611b2e9190612add565b611b389190612208565b90505b6001811115611bd8577f3031323334353637383961626364656600000000000000000000000000000000600f861660108110611b7a57611b79612b66565b5b1a60f81b828281518110611b9157611b90612b66565b5b60200101907effffffffffffffffffffffffffffffffffffffffffffffffffffffffffffff1916908160001a905350600485901c945080611bd190612b95565b9050611b3b565b5060008414611c1c576040517f08c379a0000000000000000000000000000000000000000000000000000000008152600401611c1390612c0b565b60405180910390fd5b8091505092915050565b6000600660008373ffffffffffffffffffffffffffffffffffffffff1673ffffffffffffffffffffffffffffffffffffffff16815260200190815260200160002060009054906101000a900460ff169050919050565b600080fd5b60007fffffffff0000000000000000000000000000000000000000000000000000000082169050919050565b611cb681611c81565b8114611cc157600080fd5b50565b600081359050611cd381611cad565b92915050565b600060208284031215611cef57611cee611c7c565b5b6000611cfd84828501611cc4565b91505092915050565b60008115159050919050565b611d1b81611d06565b82525050565b6000602082019050611d366000830184611d12565b92915050565b600081519050919050565b600082825260208201905092915050565b60005b83811015611d76578082015181840152602081019050611d5b565b83811115611d85576000848401525b50505050565b6000601f19601f8301169050919050565b6000611da782611d3c565b611db18185611d47565b9350611dc1818560208601611d58565b611dca81611d8b565b840191505092915050565b60006020820190508181036000830152611def8184611d9c565b905092915050565b600073ffffffffffffffffffffffffffffffffffffffff82169050919050565b6000611e2282611df7565b9050919050565b611e3281611e17565b8114611e3d57600080fd5b50565b600081359050611e4f81611e29565b92915050565b6000819050919050565b611e6881611e55565b8114611e7357600080fd5b50565b600081359050611e8581611e5f565b92915050565b60008060408385031215611ea257611ea1611c7c565b5b6000611eb085828601611e40565b9250506020611ec185828601611e76565b9150509250929050565b611ed481611e55565b82525050565b6000602082019050611eef6000830184611ecb565b92915050565b600080600060608486031215611f0e57611f0d611c7c565b5b6000611f1c86828701611e40565b9350506020611f2d86828701611e40565b9250506040611f3e86828701611e76565b9150509250925092565b6000819050919050565b611f5b81611f48565b8114611f6657600080fd5b50565b600081359050611f7881611f52565b92915050565b600060208284031215611f9457611f93611c7c565b5b6000611fa284828501611f69565b91505092915050565b611fb481611f48565b82525050565b6000602082019050611fcf6000830184611fab565b92915050565b60008060408385031215611fec57611feb611c7c565b5b6000611ffa85828601611f69565b925050602061200b85828601611e40565b9150509250929050565b600060ff82169050919050565b61202b81612015565b82525050565b60006020820190506120466000830184612022565b92915050565b60006020828403121561206257612061611c7c565b5b600061207084828501611e40565b91505092915050565b60006020828403121561208f5761208e611c7c565b5b600061209d84828501611e76565b91505092915050565b600080604083850312156120bd576120bc611c7c565b5b60006120cb85828601611e40565b92505060206120dc85828601611e40565b9150509250929050565b7f4e487b7100000000000000000000000000000000000000000000000000000000600052602260045260246000fd5b6000600282049050600182168061212d57607f821691505b60208210811415612141576121406120e6565b5b50919050565b7f416363657373436f6e74726f6c3a2063616e206f6e6c792072656e6f756e636560008201527f20726f6c657320666f722073656c660000000000000000000000000000000000602082015250565b60006121a3602f83611d47565b91506121ae82612147565b604082019050919050565b600060208201905081810360008301526121d281612196565b9050919050565b7f4e487b7100000000000000000000000000000000000000000000000000000000600052601160045260246000fd5b600061221382611e55565b915061221e83611e55565b9250827fffffffffffffffffffffffffffffffffffffffffffffffffffffffffffffffff03821115612253576122526121d9565b5b828201905092915050565b61226781611e17565b82525050565b6000604082019050612282600083018561225e565b61228f6020830184611ecb565b9392505050565b61229f81611d06565b81146122aa57600080fd5b50565b6000815190506122bc81612296565b92915050565b6000602082840312156122d8576122d7611c7c565b5b60006122e6848285016122ad565b91505092915050565b7f45524332303a2064656372656173656420616c6c6f77616e63652062656c6f7760008201527f207a65726f000000000000000000000000000000000000000000000000000000602082015250565b600061234b602583611d47565b9150612356826122ef565b604082019050919050565b6000602082019050818103600083015261237a8161233e565b9050919050565b7f45524332304361707065643a2063617020657863656564656400000000000000600082015250565b60006123b7601983611d47565b91506123c282612381565b602082019050919050565b600060208201905081810360008301526123e6816123aa565b9050919050565b7f45524332303a206d696e7420746f20746865207a65726f206164647265737300600082015250565b6000612423601f83611d47565b915061242e826123ed565b602082019050919050565b6000602082019050818103600083015261245281612416565b9050919050565b7f45524332303a20617070726f76652066726f6d20746865207a65726f2061646460008201527f7265737300000000000000000000000000000000000000000000000000000000602082015250565b60006124b5602483611d47565b91506124c082612459565b604082019050919050565b600060208201905081810360008301526124e4816124a8565b9050919050565b7f45524332303a20617070726f766520746f20746865207a65726f20616464726560008201527f7373000000000000000000000000000000000000000000000000000000000000602082015250565b6000612547602283611d47565b9150612552826124eb565b604082019050919050565b600060208201905081810360008301526125768161253a565b9050919050565b7f45524332303a20696e73756666696369656e7420616c6c6f77616e6365000000600082015250565b60006125b3601d83611d47565b91506125be8261257d565b602082019050919050565b600060208201905081810360008301526125e2816125a6565b9050919050565b7f45524332303a207472616e736665722066726f6d20746865207a65726f20616460008201527f6472657373000000000000000000000000000000000000000000000000000000602082015250565b6000612645602583611d47565b9150612650826125e9565b604082019050919050565b6000602082019050818103600083015261267481612638565b9050919050565b7f45524332303a207472616e7366657220746f20746865207a65726f206164647260008201527f6573730000000000000000000000000000000000000000000000000000000000602082015250565b60006126d7602383611d47565b91506126e28261267b565b604082019050919050565b60006020820190508181036000830152612706816126ca565b9050919050565b7f45524332303a207472616e7366657220616d6f756e742065786365656473206260008201527f616c616e63650000000000000000000000000000000000000000000000000000602082015250565b6000612769602683611d47565b91506127748261270d565b604082019050919050565b600060208201905081810360008301526127988161275c565b9050919050565b600081905092915050565b7f416363657373436f6e74726f6c3a206163636f756e7420000000000000000000600082015250565b60006127e060178361279f565b91506127eb826127aa565b601782019050919050565b600061280182611d3c565b61280b818561279f565b935061281b818560208601611d58565b80840191505092915050565b7f206973206d697373696e6720726f6c6520000000000000000000000000000000600082015250565b600061285d60118361279f565b915061286882612827565b601182019050919050565b600061287e826127d3565b915061288a82856127f6565b915061289582612850565b91506128a182846127f6565b91508190509392505050565b7f45524332303a206275726e2066726f6d20746865207a65726f2061646472657360008201527f7300000000000000000000000000000000000000000000000000000000000000602082015250565b6000612909602183611d47565b9150612914826128ad565b604082019050919050565b60006020820190508181036000830152612938816128fc565b9050919050565b7f45524332303a206275726e20616d6f756e7420657863656564732062616c616e60008201527f6365000000000000000000000000000000000000000000000000000000000000602082015250565b600061299b602283611d47565b91506129a68261293f565b604082019050919050565b600060208201905081810360008301526129ca8161298e565b9050919050565b60006129dc82611e55565b91506129e783611e55565b9250828210156129fa576129f96121d9565b5b828203905092915050565b7f53656e64657220697320696e2074686520626c61636b6c697374000000000000600082015250565b6000612a3b601a83611d47565b9150612a4682612a05565b602082019050919050565b60006020820190508181036000830152612a6a81612a2e565b9050919050565b7f526563697069656e7420697320696e2074686520626c61636b6c697374000000600082015250565b6000612aa7601d83611d47565b9150612ab282612a71565b602082019050919050565b60006020820190508181036000830152612ad681612a9a565b9050919050565b6000612ae882611e55565b9150612af383611e55565b9250817fffffffffffffffffffffffffffffffffffffffffffffffffffffffffffffffff0483118215151615612b2c57612b2b6121d9565b5b828202905092915050565b7f4e487b7100000000000000000000000000000000000000000000000000000000600052604160045260246000fd5b7f4e487b7100000000000000000000000000000000000000000000000000000000600052603260045260246000fd5b6000612ba082611e55565b91506000821415612bb457612bb36121d9565b5b600182039050919050565b7f537472696e67733a20686578206c656e67746820696e73756666696369656e74600082015250565b6000612bf5602083611d47565b9150612c0082612bbf565b602082019050919050565b60006020820190508181036000830152612c2481612be8565b905091905056fea2646970667358221220ea97a734b6b08a0be44017eafed1df74294f2a494f96eaa1b5aa8aee2d62558564736f6c634300080a0033",
  "immutableReferences": {
    "1099": [
      {
        "length": 32,
        "start": 1865
      }
    ]
  },
  "source": "// SPDX-License-Identifier: MIT\npragma solidity ^0.8.10;\n\nimport \"@openzeppelin/contracts/token/ERC20/IERC20.sol\";\nimport \"@openzeppelin/contracts/token/ERC20/extensions/ERC20Burnable.sol\";\nimport \"@openzeppelin/contracts/token/ERC20/extensions/ERC20Capped.sol\";\nimport \"@openzeppelin/contracts/access/AccessControl.sol\";\n\ncontract CutiesToken is AccessControl, ERC20Burnable, ERC20Capped {\n\n  bytes32 public constant OPERATOR_ROLE = keccak256(\"OPERATOR\");\n  mapping (address => bool) public blackList;\n\n  constructor(\n    string memory name,\n    string memory symbol,\n    uint256 initialSupply,\n    uint256 maxSupply\n  ) ERC20(name, symbol) ERC20Capped(maxSupply) {\n    _mint(msg.sender, initialSupply);\n    _grantRole(DEFAULT_ADMIN_ROLE, msg.sender);\n    _grantRole(OPERATOR_ROLE, msg.sender);\n  }\n\n  function mint(address to, uint256 amount) public onlyRole(DEFAULT_ADMIN_ROLE) {\n    _mint(to, amount);\n  }\n\n  function withdrawToken(address _tokenContract, uint256 _amount) public onlyRole(DEFAULT_ADMIN_ROLE) {\n    IERC20 tokenContract = IERC20(_tokenContract);\n\n    tokenContract.transfer(msg.sender, _amount);\n  }\n\n  function addToBlackList(address _wallet) public onlyRole(OPERATOR_ROLE) {\n    blackList[_wallet] = true;\n  }\n\n  function removeFromBlackList(address _wallet) public onlyRole(OPERATOR_ROLE) {\n    delete blackList[_wallet];\n  }\n\n  function _mint(address to, uint256 amount) internal override(ERC20, ERC20Capped) {\n    super ._mint(to, amount);\n  }\n\n  function _beforeTokenTransfer(address from, address to, uint256 amount) internal view override {\n    require(!_isInBlackList(from), \"Sender is in the blacklist\");\n    require(!_isInBlackList(to), \"Recipient is in the blacklist\");\n  }\n\n  function _isInBlackList(address _wallet) internal view returns (bool) {\n    return blackList[_wallet];\n  }\n}\n",
  "sourcePath": "/var/www/cutties/contracts/CutiesToken.sol",
  "compiler": {
    "name": "solc",
    "version": "0.8.10+commit.fc410830.Emscripten.clang"
  },
  "schemaVersion": "3.4.4",
  "updatedAt": "2022-02-15T14:04:07.931Z",
  "networkType": "ethereum",
  "devdoc": {
    "kind": "dev",
    "methods": {
      "allowance(address,address)": {
        "details": "See {IERC20-allowance}."
      },
      "approve(address,uint256)": {
        "details": "See {IERC20-approve}. NOTE: If `amount` is the maximum `uint256`, the allowance is not updated on `transferFrom`. This is semantically equivalent to an infinite approval. Requirements: - `spender` cannot be the zero address."
      },
      "balanceOf(address)": {
        "details": "See {IERC20-balanceOf}."
      },
      "burn(uint256)": {
        "details": "Destroys `amount` tokens from the caller. See {ERC20-_burn}."
      },
      "burnFrom(address,uint256)": {
        "details": "Destroys `amount` tokens from `account`, deducting from the caller's allowance. See {ERC20-_burn} and {ERC20-allowance}. Requirements: - the caller must have allowance for ``accounts``'s tokens of at least `amount`."
      },
      "cap()": {
        "details": "Returns the cap on the token's total supply."
      },
      "decimals()": {
        "details": "Returns the number of decimals used to get its user representation. For example, if `decimals` equals `2`, a balance of `505` tokens should be displayed to a user as `5.05` (`505 / 10 ** 2`). Tokens usually opt for a value of 18, imitating the relationship between Ether and Wei. This is the value {ERC20} uses, unless this function is overridden; NOTE: This information is only used for _display_ purposes: it in no way affects any of the arithmetic of the contract, including {IERC20-balanceOf} and {IERC20-transfer}."
      },
      "decreaseAllowance(address,uint256)": {
        "details": "Atomically decreases the allowance granted to `spender` by the caller. This is an alternative to {approve} that can be used as a mitigation for problems described in {IERC20-approve}. Emits an {Approval} event indicating the updated allowance. Requirements: - `spender` cannot be the zero address. - `spender` must have allowance for the caller of at least `subtractedValue`."
      },
      "getRoleAdmin(bytes32)": {
        "details": "Returns the admin role that controls `role`. See {grantRole} and {revokeRole}. To change a role's admin, use {_setRoleAdmin}."
      },
      "grantRole(bytes32,address)": {
        "details": "Grants `role` to `account`. If `account` had not been already granted `role`, emits a {RoleGranted} event. Requirements: - the caller must have ``role``'s admin role."
      },
      "hasRole(bytes32,address)": {
        "details": "Returns `true` if `account` has been granted `role`."
      },
      "increaseAllowance(address,uint256)": {
        "details": "Atomically increases the allowance granted to `spender` by the caller. This is an alternative to {approve} that can be used as a mitigation for problems described in {IERC20-approve}. Emits an {Approval} event indicating the updated allowance. Requirements: - `spender` cannot be the zero address."
      },
      "name()": {
        "details": "Returns the name of the token."
      },
      "renounceRole(bytes32,address)": {
        "details": "Revokes `role` from the calling account. Roles are often managed via {grantRole} and {revokeRole}: this function's purpose is to provide a mechanism for accounts to lose their privileges if they are compromised (such as when a trusted device is misplaced). If the calling account had been revoked `role`, emits a {RoleRevoked} event. Requirements: - the caller must be `account`."
      },
      "revokeRole(bytes32,address)": {
        "details": "Revokes `role` from `account`. If `account` had been granted `role`, emits a {RoleRevoked} event. Requirements: - the caller must have ``role``'s admin role."
      },
      "supportsInterface(bytes4)": {
        "details": "See {IERC165-supportsInterface}."
      },
      "symbol()": {
        "details": "Returns the symbol of the token, usually a shorter version of the name."
      },
      "totalSupply()": {
        "details": "See {IERC20-totalSupply}."
      },
      "transfer(address,uint256)": {
        "details": "See {IERC20-transfer}. Requirements: - `to` cannot be the zero address. - the caller must have a balance of at least `amount`."
      },
      "transferFrom(address,address,uint256)": {
        "details": "See {IERC20-transferFrom}. Emits an {Approval} event indicating the updated allowance. This is not required by the EIP. See the note at the beginning of {ERC20}. NOTE: Does not update the allowance if the current allowance is the maximum `uint256`. Requirements: - `from` and `to` cannot be the zero address. - `from` must have a balance of at least `amount`. - the caller must have allowance for ``from``'s tokens of at least `amount`."
      }
    },
    "version": 1
  },
  "userdoc": {
    "kind": "user",
    "methods": {},
    "version": 1
  }
}